:020000040000FA
:100000000C9462000C948A000C948A000C948A0070
:100010000C948A000C948A000C948A000C948A0038
:100020000C948A000C948A000C948A000C948A0028
:100030000C948A000C948A000C948A000C948A0018
:100040000C9437030C948A000C948A000C948A0058
:100050000C948A000C948A000C948A000C948A00F8
:100060000C948A000C948A000000000024002700F1
:100070002A0000000000250028002B0000000000DE
:1000800023002600290004040404040404040202DA
:100090000202020203030303030301020408102007
:1000A0004080010204081020010204081020000012
:1000B0000008000201000003040700000000000027
:1000C0000000620411241FBECFEFD8E0DEBFCDBF19
:1000D00011E0A0E0B1E0E0E1F9E002C005900D928E
:1000E000AE32B107D9F721E0AEE2B1E001C01D9216
:1000F000AF34B207E1F710E0C2E6D0E004C02197C8
:10010000FE010E948004C136D107C9F70E94810315
:100110000C9486040C940000AF92BF92CF92DF92B1
:10012000EF92FF920F931F93CF93DF936C017B01AC
:100130008B01040F151FEB015E01AE18BF08C0173D
:10014000D10759F06991D601ED91FC910190F081B0
:10015000E02DC6010995892B79F7C501DF91CF9173
:100160001F910F91FF90EF90DF90CF90BF90AF90D5
:100170000895833081F028F4813099F08230A9F01D
:1001800008958730A9F08830C9F08430B1F48091A7
:1001900080008F7D03C0809180008F7780938000E6
:1001A000089584B58F7784BD089584B58F7DFBCF86
:1001B0008091B0008F778093B00008958091B00057
:1001C0008F7DF9CFCF93DF93282F30E0F901E255EF
:1001D000FF4F8491F901E656FF4FD491F901EA5798
:1001E000FF4FC491CC23A1F081110E94B900EC2FE4
:1001F000F0E0EE0FFF1FE458FF4FA591B491EC9192
:10020000ED2381E090E009F480E0DF91CF91089543
:1002100080E090E0FACF1F93CF93DF93282F30E058
:10022000F901E255FF4F8491F901E656FF4FD49151
:10023000F901EA57FF4FC491CC23A9F0162F811181
:100240000E94B900EC2FF0E0EE0FFF1FEE58FF4FB9
:10025000A591B4918FB7F894EC91111108C0D09585
:10026000DE23DC938FBFDF91CF911F910895DE2BAA
:10027000F8CFCF93DF9390E0FC01E656FF4F249137
:100280008A579F4FFC0184918823C9F090E0880F22
:10029000991FFC01E859FF4FA591B491FC01EE585C
:1002A000FF4FC591D49161110DC09FB7F8948C9107
:1002B000209582238C938881282328839FBFDF91F8
:1002C000CF910895623051F49FB7F8943C91822FFA
:1002D000809583238C93E8812E2BEFCF8FB7F894F2
:1002E000EC912E2B2C938FBFEACF3FB7F8948091DF
:1002F000330190913401A0913501B091360126B5BA
:10030000A89B05C02F3F19F00196A11DB11D3FBF4D
:10031000BA2FA92F982F8827BC01CD01620F711D1C
:10032000811D911D42E0660F771F881F991F4A9516
:10033000D1F708958F929F92AF92BF92CF92DF92A2
:10034000EF92FF924B015C010E9475016B017C01F1
:100350000E9475016C197D098E099F09683E7340E2
:1003600081059105A8F321E0821A9108A108B1083E
:1003700088EEC80E83E0D81EE11CF11C81149104A4
:10038000A104B10429F7FF90EF90DF90CF90BF90C8
:10039000AF909F908F900895089590E080E0089529
:1003A000FC0101900020E9F73197AF01481B590B80
:1003B000BC0187E391E00C948C00CF93DF93EC01B8
:1003C00060E08E810E940B0161E08E810E940B0132
:1003D00060E08E810E940B018BE891E00197F1F7BC
:1003E000DF91CF910895CF92DF92EF92FF920F931A
:1003F0001F93CF93DF936C017C0187E0E80EF11C23
:10040000D0E0C0E0062F10E0B8010C2E02C07595B8
:1004100067950A94E2F76170F70181917F010E946C
:100420000B012196C430D10579F7C601DF91CF9138
:100430001F910F91FF90EF90DF90CF900C94DD0112
:10044000CF92DF92EF92FF920F931F93CF93DF93A0
:10045000EC01F62E642F8C810E940B018D818F3F61
:1004600019F060E00E940B010F2D10E08F8584FFD2
:1004700025C06E0187E0C80ED11CF12CE12CB8011B
:100480000E2C02C0759567950A94E2F76170F6012B
:1004900081916F010E940B01FFEFEF1AFF0A88E0C4
:1004A000E816F10461F7CE01DF91CF911F910F9112
:1004B000FF90EF90DF90CF900C94DD01B80184E0C5
:1004C000759567958A95E1F7CE010E94F3016F2D2E
:1004D000CE01DF91CF911F910F91FF90EF90DF90B0
:1004E000CF900C94F30140E0682F87E391E00C94E7
:1004F000200281E00E9473028BE39FE10197F1F7F4
:100500000895CF93DF93823029F49091460198604B
:100510009093460180934A0110924B0180E48093AE
:100520004C0180E180934D0180E580934E0161E0B4
:1005300080913B010E94390180913C018F3F19F06D
:1005400061E00E94390161E080913D010E94390122
:10055000C7E3D1E09E01275331408091460184FDDD
:100560000BC084E090E021962817390744F461E03D
:100570008E810E943901EECF88E090E0F4CF8BE3CA
:100580009DE00197F1F760E080913B010E940B0133
:1005900060E080913D010E940B0180913C018F3F02
:1005A00019F060E00E940B018091460184FD34C087
:1005B00063E087E391E00E94F301CBE4D6E4CE014F
:1005C0000197F1F763E087E391E00E94F30121973F
:1005D000F1F763E087E391E00E94F30183E592E0A5
:1005E0000197F1F762E087E391E00E94F3018091C7
:1005F000460180620E94730284E0809347018CE090
:100600000E9473020E94790282E08093480186E092
:10061000DF91CF910C94730280620E9473028BE48D
:1006200096E40197F1F78091460180620E9473027F
:1006300083E592E00197F1F78091460180620E9484
:100640007302D5CF90914A01691710F06FEF690FCF
:10065000E62FF0E0E95CFE4F9489890F80680C94E6
:10066000730241E00E94200281E090E008951F9211
:100670000F920FB60F9211242F933F938F939F9356
:10068000AF93BF9380912F0190913001A0913101E0
:10069000B091320130912E0123E0230F2D3758F510
:1006A0000196A11DB11D20932E0180932F019093DF
:1006B0003001A0933101B0933201809133019091C8
:1006C0003401A0913501B09136010196A11DB11DF3
:1006D0008093330190933401A0933501B093360198
:1006E000BF91AF919F918F913F912F910F900FBE2E
:1006F0000F901F90189526E8230F0296A11DB11D9B
:10070000D2CF789484B5826084BD84B5816084BD85
:1007100085B5826085BD85B5816085BD80916E009F
:10072000816080936E0010928100809181008260D0
:10073000809381008091810081608093810080910D
:1007400080008160809380008091B10084608093FC
:10075000B1008091B00081608093B00080917A00F8
:10076000846080937A0080917A00826080937A001E
:1007700080917A00816080937A0080917A0080680D
:1007800080937A001092C10061E087E00E943901F5
:1007900060E084E00E94390182E00E94810262E010
:1007A0008EE00E94390161E081E00E94390160E041
:1007B00082E00E9422038CE091E00E94D00161E07F
:1007C00084E00E94220388E191E00E94D00168EE5B
:1007D00073E080E090E00E949A010E947902C0E0FC
:1007E000D0E084E00E94E200019709F057C061E088
:1007F00087E00E940B0161E081E00E940B0160E054
:1008000086E00E94220382E191E00E94D00161E033
:1008100083E00E94220381E291E00E94D00168EC13
:1008200070E080E090E00E949A010E94790268ECFA
:1008300070E080E090E00E949A018EE00E94E20069
:100840000197A9F561E081E00E940B0161E087E07A
:100850000E940B0160E086E00E9422038AE291E0A0
:100860000E94D00161E083E00E94220381E291E0D6
:100870000E94D00168EC70E080E090E00E949A0154
:100880000E94790268EC70E080E090E00E949A019A
:10089000209709F4A6CF0E940000A3CF60E087E074
:1008A0000E940B0160E081E00E940B01C6CF0E9414
:1008B000790260E081E00E940B0160E087E00E9425
:1008C0000B01E6CFE7E3F1E01382128284E091E0CE
:1008D0009183808388E084838FEF858386E086839D
:1008E00085E0878389E0808783E0818782E0828753
:1008F0001386148615861686178681E00C9481026D
:10090000EE0FFF1F0590F491E02D0994F894FFCFAE
:100910000000000031038C00CD01CC014741532081
:100920002620466C616D65004445544543544F5242
:0E09300000444554454354454400474153009C
:107E0000112484B714BE81FFF0D085E080938100F7
:107E100082E08093C00088E18093C10086E0809377
:107E2000C20080E18093C4008EE0C9D0259A86E02C
:107E300020E33CEF91E0309385002093840096BBD3
:107E4000B09BFECF1D9AA8958150A9F7CC24DD24C4
:107E500088248394B5E0AB2EA1E19A2EF3E0BF2EE7
:107E6000A2D0813461F49FD0082FAFD0023811F036
:107E7000013811F484E001C083E08DD089C08234E0
:107E800011F484E103C0853419F485E0A6D080C0E4
:107E9000853579F488D0E82EFF2485D0082F10E0AE
:107EA000102F00270E291F29000F111F8ED06801E7
:107EB0006FC0863521F484E090D080E0DECF843638
:107EC00009F040C070D06FD0082F6DD080E0C81688
:107ED00080E7D80618F4F601B7BEE895C0E0D1E017
:107EE00062D089930C17E1F7F0E0CF16F0E7DF06D8
:107EF00018F0F601B7BEE89568D007B600FCFDCFD4
:107F0000A601A0E0B1E02C9130E011968C91119780
:107F100090E0982F8827822B932B1296FA010C0160
:107F200087BEE89511244E5F5F4FF1E0A038BF0790
:107F300051F7F601A7BEE89507B600FCFDCF97BE46
:107F4000E89526C08437B1F42ED02DD0F82E2BD052
:107F50003CD0F601EF2C8F010F5F1F4F84911BD097
:107F6000EA94F801C1F70894C11CD11CFA94CF0C13
:107F7000D11C0EC0853739F428D08EE10CD085E9AC
:107F80000AD08FE07ACF813511F488E018D01DD067
:107F900080E101D065CF982F8091C00085FFFCCF94
:107FA0009093C60008958091C00087FFFCCF809118
:107FB000C00084FD01C0A8958091C6000895E0E648
:107FC000F0E098E1908380830895EDDF803219F02E
:107FD00088E0F5DFFFCF84E1DECF1F93182FE3DFCA
:107FE0001150E9F7F2DF1F91089580E0E8DFEE27F6
:047FF000FF270994CA
:027FFE00040479
:00000001FF
